:100000000C949B080C94C3080C94C3080C94C3086C
:100010000C94C3080C94C3080C94C3080C94C30834
:100020000C94C3080C94C3080C9474100C94060F21
:100030000C94C3080C94C3080C94C3080C94C30814
:100040000C94C3080C94C3080C94C3080C94C30804
:100050000C94C3080C94C3080C94C3080C94261188
:100060000C94C3080C94C3080C94C3080C94C308E4
:100070000C94C3080C94C3080C94C3080C94C308D4
:100080000C94C3080C94C3080C94C3080C94C308C4
:100090000C94C3080C94C3080C94C3080C94C308B4
:1000A0000C94C3080C94C3080C94C30855C00000FA
:1000B000C6C00000C4C00000C2C00000C0C0000034
:1000C000BEC00000BCC00000BAC00000B8C0000044
:1000D000B6C000001CC50000B2C00000B0C00000E7
:1000E000AEC00000ACC00000AAC00000A8C0000064
:1000F000A6C00000A4C00000A2C0000056C30000BB
:100100009EC000009CC000009AC0000098C0000083
:1001100096C0000094C0000092C0000090C0000093
:100120008EC000008CC000008AC0000088C00000A3
:1001300086C0000084C0000082C0000080C00000B3
:100140007EC000007CC000007AC0000078C00000C3
:1001500076C0000074C0000011241FBECFEFDAE0AB
:10016000DEBFCDBF84B714BE0FB6F894A8959091AA
:100170006000986190936000109260000FBEE0E014
:10018000F0E0259134911092200281FF1BC08091F4
:10019000FE0A9091FF0A87379747E1F187E797E7D3
:1001A0009093FF0A8093FE0A8FEF93EDE0E3815076
:1001B0009040E040E1F700C000001092FF0A10926A
:1001C000FE0A25C080FF11C06E98769AFFEF21EEDF
:1001D00044E0F15020404040E1F700C00000669B41
:1001E00019C08FEF8093200215C083FF13C0809148
:1001F000FE0A9091FF0A8737974749F40BC0109287
:10020000FF0A1092FE0AE0E0F0E0099503C02F3FDC
:100210003F4FA9F711E0A0E0B1E0E6E5FEE702C03C
:1002200005900D92A239B107D9F722E0A2E9B1E019
:1002300001C01D92A032B207E1F730D060C636CFC0
:1002400084E08093E9008091E80085FD0DC08091F5
:10025000E8008B778093E8008091E80082FDF3CF7F
:100260008EB38111F9CF02C08091F100089593E01F
:100270009093E9009091E80095FF03C08093F1000E
:1002800008959091E8009E779093E8009091E8009F
:1002900090FDF4CF9EB39111F9CF0895CF93DF93E2
:1002A00000D0CDB7DEB790E080E80FB6F894809329
:1002B0006100909361000FBE11E015BF82E085BF21
:1002C00009D4269A2E9A6E9A769A10936F0083E03C
:1002D000809381002E9876987894F3E08F2EA2E098
:1002E0002A2E312CB1E9AB2EB1E0BB2E85E0982E41
:1002F00080910001882309F442C284E08093E900E0
:100300008091E80082FF27C29BDF982F853419F483
:100310001092000107C088E8890F823010F09435F0
:1003200021F48EDF8DE0A3DFE7C19035D9F39C3453
:10033000C9F3943721F484E49ADF80E0F4CF913656
:1003400011F489E5F0CF913491F47ADF182F78DF3A
:10035000212F30E0322F2227330F90E0880F991F92
:10036000822B932B092E000CAA0BBB0B99C1903743
:1003700011F483E5D8CF933551F40AE811E0F80180
:1003800081918F0174DFA016B106C9F7B5C196350A
:1003900021F481E36CDF80E3C6CF933731F487E843
:1003A00066DF85E964DF8EE1BECF9536A9F4E0E033
:1003B000F0E080925700E89507B600FCFDCF9092E0
:1003C0005700E89507B600FCFDCFE058FF4FE11558
:1003D00020E7F20771F7A6CF9C3651F431DF809504
:1003E00099E0E1E0F0E0082E90935700E8959ACF6D
:1003F000923721F489E0E1E0F0E010C0963421F476
:1004000089E0E0E0F0E00AC09E3421F489E0E3E016
:10041000F0E004C0913531F489E0F1018093570098
:10042000849181CF923631F489E521DF80E01FDFAE
:1004300080E879CF923419F0973609F0CAC09983D1
:10044000FFDE082F10E0102F0027FADE7801E82ADF
:10045000F7DE182F8BEB810F9981823010F08FE33C
:1004600062CF973609F046C081E180935700E89546
:1004700000E0E114F10409F43FC1409012025090F1
:10048000130260901402709015021634D1F4E02F1C
:10049000F0E0E429F5298491EADE002369F0F2E036
:1004A0004F0E511C611C711C40921202509213029B
:1004B000609214027092150281E0011180E0082F11
:1004C00015C0D301C201B695A79597958795FDD420
:1004D000CEDE22E0420E511C611C711C40921202C1
:1004E00050921302609214027092150281E0E81A91
:1004F000F108BFCF40901202509013026090140296
:1005000070901502163439F4F20180925700E89584
:1005100007B600FCFDCF97012115310509F451C044
:10052000163431F5C0901202D0901302E0901402FC
:10053000F090150229833A8383DEB701A6014F7735
:10054000552766277727FA01EE56FE4F8083B701BD
:10055000A6014F5F5F4F6F4F7F4F40931202509342
:100560001302609314027093150229813A8126C008
:1005700029833A8365DE682F8091120290911302DD
:10058000A0911402B0911502B695A79597958795FD
:10059000A4D48091120290911302A0911402B09100
:1005A00015020296A11DB11D8093120290931302B1
:1005B000A0931402B09315023A8129812150310988
:1005C000ABCF163409F0AECE62E971E0C2012ED590
:1005D000A9CE933471F4009112021091130230DE0F
:1005E00090E021E0F8010C0120935700E8951124D8
:1005F00099CE933601F5409012025090130260900C
:100600001402709015021CDEF201E16090E021E01E
:100610000C0120935700E895112482E0480E511CEC
:10062000611C711C409212025092130260921402DB
:100630007092150277CE9D3659F4E0911202F09136
:10064000130290925700E89507B600FCFDCF6ACEE2
:10065000923551F4E0911202F09113020591149138
:10066000812F05DE802F5FCE943419F5E9DD682FE8
:100670008091120290911302A0911402B091150280
:10068000B695A7959795879528D480911202909159
:100690001302A0911402B09115020296A11DB11D82
:1006A0008093120290931302A0931402B093150248
:1006B00039CE9436F1F440901202509013026090BB
:1006C000140270901502D301C201B695A7959795B3
:1006D0008795FBD3CCDD92E0490E511C611C711C47
:1006E000409212025092130260921402709215020C
:1006F00003C09B3109F0B3CE8092E9009091E800ED
:100700008091E8008E778093E80095FD11C080917C
:10071000E80080FD04C08EB38111F9CF1CC0809128
:10072000E8008E778093E80003C08EB3882399F0A9
:100730008091E80080FFF9CF84E08093E900809108
:10074000E8008B778093E80080912002882319F0DD
:100750008FEF80932002A0D380912002882309F498
:10076000C7CD815080932002811102C010920001F8
:10077000EFE3FCE93197F1F700C00000B7CD8FE956
:100780009FE00197F1F700C000008091E0008160D8
:100790008093E0009CE088E10FB6F894A8958093E0
:1007A00060000FBE90936000FFCF1F920F920FB6B4
:1007B0000F9211248F9380E483B989B98F910F90A0
:1007C0000FBE0F901F90189542E061EC82E016D1A9
:1007D00042E161E883E012D142E160E884E00EC1C9
:1007E000809118028F77813209F03CC080E483B990
:1007F00089B980911902813229F0823249F180321F
:1008000089F512C080911802813A61F58091E80063
:10081000877F8093E80067E070E081E091E054D04A
:100820008091E8008B7711C0809118028132D1F459
:100830008091E800877F8093E80067E070E081E0C6
:1008400091E09ED08091E8008E778093E800089533
:1008500080911802813231F48091E800877F809383
:10086000E800E0C00895292F30E02130310581F003
:100870002230310591F09330F9F4882399F08130DA
:10088000B1F08230C9F482E190E028E031E018C094
:1008900082E190E028E731E013C08EE390E02AE3A4
:1008A00031E00EC084E090E026E331E009C088E149
:1008B00090E02CE131E004C080E090E020E030E006
:1008C000FA0131832083089520911E0230911F0286
:1008D0002617370748F06115710539F42091E800B3
:1008E0002E772093E80001C0B901FC0120E06115DA
:1008F000710571F18EB38823E9F18530E9F18091BA
:10090000E80083FD3BC08091E80082FD2DC080910E
:10091000E80080FFECCF2091F3008091F20090E09E
:10092000922B6115710551F08830910538F42191B1
:100930002093F100615071090196F3CF21E00897EF
:1009400009F020E08091E8008E778093E800CFCF17
:100950002111D0CF09C08EB3882361F0853061F0BA
:100960008091E80083FD0AC08091E80082FFF3CF08
:1009700080E0089582E0089583E0089581E008957D
:100980006115710529F42091E8002B772093E80088
:10099000FC016115710531F18EB3882359F1853061
:1009A00059F18091E80083FD23C08091E80082FF27
:1009B000F0CF2091F3008091F20090E0922B892BF0
:1009C00031F08091F10081936150710991F780912C
:1009D000E8008B778093E800DCCF8EB3882351F05A
:1009E000853051F08091E80080FFF7CF80E00895D6
:1009F00081E0089582E0089583E008958F708093E8
:100A0000E900EBEEF0E0808181608083EDEEF0E0C4
:100A100010826093EC0040838091EE00881F88274D
:100A2000881F08958091180287FF0FC08091E80009
:100A300082FD04C08EB38111F9CF10C08091E8000F
:100A40008B770AC08EB3882349F08091E80080FF3D
:100A5000F9CF8091E8008E778093E80008950F9396
:100A60001F93CF93DF9346D04DD0C8EDD0E088815F
:100A70008F77888388818068888388818F7D888349
:100A800019BC1EBA1092160200EE10E0F801808127
:100A90008B7F808388818160888342E060E080E092
:100AA000ADDFE1EEF0E080818E7F8083E2EEF0E06A
:100AB000808181608083808188608083F80180816B
:100AC0008E7F8083888180618883DF91CF911F91A1
:100AD0000F910895E8EDF0E080818F7E8083E7ED4F
:100AE000F0E080818160808384E082BF81E0809338
:100AF0001702B5CFE8EDF0E080818E7F8083109201
:100B0000E20008951092DA001092E10008951F9219
:100B10000F920FB60F9211242F933F934F935F9331
:100B20006F937F938F939F93AF93BF93EF93FF93B5
:100B30008091DA0080FF1BC08091D80080FF17C031
:100B40008091DA008E7F8093DA008091D90080FF57
:100B50000BC080E189BD82E189BD09B400FEFDCFF3
:100B600081E08EBB98D103C019BC1EBA94D180918C
:100B7000E10080FF17C08091E20080FF13C08091E8
:100B8000E2008E7F8093E2008091E200806180939A
:100B9000E2008091D80080628093D80019BC85E083
:100BA0008EBB79D18091E10084FF2EC08091E2005C
:100BB00084FF2AC080E189BD82E189BD09B400FEBD
:100BC000FDCF8091D8008F7D8093D8008091E10087
:100BD0008F7E8093E1008091E2008F7E8093E2001F
:100BE0008091E20081608093E20080911602882368
:100BF00011F084E007C08091E30087FD02C081E02E
:100C000001C083E08EBB47D18091E10083FF21C00A
:100C10008091E20083FF1DC08091E100877F809377
:100C2000E10082E08EBB109216028091E1008E7F7F
:100C30008093E1008091E2008E7F8093E2008091BA
:100C4000E20080618093E20042E060E080E0D6DE76
:100C500022D1FF91EF91BF91AF919F918F917F91A1
:100C60006F915F914F913F912F910F900FBE0F9019
:100C70001F9018951F93CF93DF9300D0CDB7DEB7A9
:100C8000E8E1F2E080E292E02091F10021938E17FA
:100C90009F07D1F7A5DD8091E80083FFE8C0809130
:100CA000180290911902953009F46FC030F4913018
:100CB00071F168F0933059F1DAC0983009F4A8C0A6
:100CC000993009F4B4C0963009F0D1C07FC08038A3
:100CD00099F0823809F0CBC080911C028F70873068
:100CE00008F0C5C08093E9008091EB0085FB882760
:100CF00080F91092E90001C080E09091E800977FB0
:100D00009093E8008093F1001092F1008CC0282F9E
:100D10002D7F09F0ACC0823009F0A9C080911A0281
:100D200081112AC080911C028F702FEF280F26306E
:100D300008F09DC08093E9002091EB0020FF1CC0CB
:100D4000933021F48091EB00806214C09091EB000D
:100D500090619093EB0021E030E0A90102C0440FC4
:100D6000551F8A95E2F74093EA001092EA008091BD
:100D7000EB0088608093EB001092E9008091E8001E
:100D8000877F8093E8004EDE72C0811170C01091A1
:100D90001A021F778091E3008078812B8093E30013
:100DA0008091E800877F8093E8003CDE8091E80036
:100DB00080FFFCCF8091E30080688093E3001111F5
:100DC00002C082E001C083E08EBB51C080588230F7
:100DD00008F04DC060911C0270911D02AE014F5F82
:100DE0005F4F80911A0290911B023DDDBC01892B5F
:100DF00009F43DC09091E800977F9093E8008981C5
:100E00009A8162DD8091E8008B778093E8002FC0A3
:100E1000803869F58091E800877F8093E8008091B1
:100E200016028093F1008091E8008E77AACF81119D
:100E30001EC080911A0290911B0299270297BCF460
:100E40008091E800877F8093E80080911A02809368
:100E50001602E8DD80911602811106C08091E30040
:100E600087FD02C081E001C084E08EBBADDC8091D3
:100E7000E80083FF0AC08091E800877F8093E80044
:100E80008091EB0080628093EB000F900F90DF91D8
:100E9000CF911F9108950895CF938EB3882399F031
:100EA000C091E900CF709091EC00892F817090FD86
:100EB00080E8C82B1092E9008091E80083FDDADE1B
:100EC000CF70C093E900CF910895F999FECF92BDFC
:100ED00081BDF89A992780B50895262FF999FECFFC
:100EE00092BD81BDF89A019700B4021639F01FBA7D
:100EF00020BD0FB6F894FA9AF99A0FBE0895F894A7
:100F0000FFCF010000000000000812034C00550054
:100F10004600410020004300440043000000180345
:100F20004400650061006E002000430061006D0018
:100F300065007200610000000403090409023E001C
:100F400002010080320904000001020201000524B0
:100F50000010010424020205240600010705820393
:100F60000800FF09040100020A000000070504024E
:100F70001000050705830210000512011001020090
:100F80000008EB034A200001010200014C554641D4
:100F900043444300FFFFFFFFFFFFFFFFFFFFFFFF93
:100FA000FFFFFFFFFFFFFFFFFFFFFFFFFFFFFFFF51
:100FB000FFFFFFFFFFFFFFFFFFFFFFFFFFFFFFFF41
:100FC000FFFFFFFFFFFFFFFFFFFFFFFFFFFFFFFF31
:100FD000FFFFFFFFFFFFFFFFFFFFFFFFFFFFFFFF21
:100FE000FFFFFFFFFFFFFFFFFFFFFFFFFFFFFFFF11
:100FF000FFFFFFFFFFFFFFFFFFFFFFFFFFFFFFFF01
:10100000FFFFFFFFFFFFFFFFFFFFFFFFFFFFFFFFF0
:10101000FFFFFFFFFFFFFFFFFFFFFFFFFFFFFFFFE0
:10102000FFFFFFFFFFFFFFFFFFFFFFFFCF93DF93F8
:1010300080382FE7920708F032C09C012F773327C2
:10104000232B69F54FB7F89423E0FC012093570058
:10105000E89507B600FCFDCF20E030E051E0F90153
:10106000EE0FFF1FE80FF91FEB01A991B991BE0127
:101070000D0150935700E89511242F5F3F4F203406
:10108000310569F725E0FC0120935700E89507B684
:1010900000FCFDCF81E180935700E8954FBFDF91C1
:1010A000CF9108950070000000DFFBDC080B000208
:1010B00002020100090400000102020000052400F0
:1010C0001001052401010104240206052406000183
:1010D0000705810310004009040100020A00000016
:1010E00007050202400000070583024000001201CC
:1010F0000002EF020140412336800001010203019A
:10110000120100020000004041233680000101026C
:10111000030141726475696E6F204C4C430041724B
:101120006475696E6F204C656F6E6172646F000448
:1011300003090400710B11241FBECFEFDAE0DEBFFC
:10114000CDBF12E0A0E0B1E0E4E2F6E202C005901B
:101150000D92AE3EB107D9F723E0AEEEB2E001C08A
:101160001D92AF35B207E1F711E1C6E3D1E104C04A
:101170002297FE010E94E312C433D107C9F70E94EF
:1011800013110C9410130C94000008954F925F9269
:101190006F927F928F929F92AF92BF92CF92DF9287
:1011A000EF92FF920F931F93CF93DF93CDB7DEB7EC
:1011B000C058D1090FB6F894DEBF0FBECDBF00E016
:1011C00010E0C12CD12C80EC882E8FE3982E780172
:1011D00080E9F81A67E972E08EEE92E00E94AC0BAB
:1011E0004AE050E0B6018EEE92E00E94640C69E0A5
:1011F0008EEE92E00E94AE0B4AE050E0B7018EEE18
:1012000092E00E94A90C69E08EEE92E00E94AE0B83
:1012100040E150E0B7018EEE92E00E94AF0CEFE1AA
:10122000CE16D10421F563E172E08EEE92E00E94C9
:10123000B90B67E572E08EEE92E00E94B90BC058E0
:10124000DF4F0FB6F894DEBF0FBECDBFDF91CF9159
:101250001F910F91FF90EF90DF90CF90BF90AF90D4
:101260009F908F907F906F905F904F900895DE01D8
:10127000119680E090E0980124553F4F5901F50107
:10128000E80FF91FE491ED93019680389105B9F7C5
:10129000BE016F5F7F4FC701F4010995612C712C6E
:1012A000F301EE0DFF1D5490F501E60DF71D44907E
:1012B000541409F444C06EE572E08EEE92E00E9490
:1012C000B90B6EE672E08EEE92E00E94AC0B40E14C
:1012D00050E0642D8EEE92E00E94920C69E772E07D
:1012E0008EEE92E00E94AC0B40E150E0652D8EEE58
:1012F00092E00E94920C6FE772E08EEE92E00E9404
:10130000AC0B4AE050E0B3018EEE92E00E946C0C10
:101310006DE872E08EEE92E00E94AC0B40E150E08E
:10132000E1E0F0E0EC0FFD1FE60DF71D60818EEEB1
:1013300092E00E94920C8EEE92E00E94B50BFFEFBD
:101340006F1A7F0A20E86216710409F0A9CF3FEFF7
:10135000C31AD30A00581F4F3ACF0F931F93CF934E
:10136000DF938EEE92E00E94620B8823D1F340E07F
:1013700052EC61E070E08EEE92E00E945C0B40E186
:1013800050E060EC7FE38EEE92E00E946C0C80E017
:1013900090E00E94E712803D904D51F08EEF93E077
:1013A0000E94E712803D904D19F061EA72E002C0A0
:1013B00066EA72E08EEE92E00E94B90B60ED70ED8D
:1013C00080E090E00E94ED1260ED70ED8EEF93E012
:1013D0000E94ED1280E090E00E94E712803D904D67
:1013E00051F08EEF93E00E94E712803D904D19F08E
:1013F0006AEA72E002C06FEA72E08EEE92E00E944A
:10140000B90B63EB72E08EEE92E00E94B90B00E044
:1014100011E0C0E0D0E0FE01F05D649140E150E0F9
:101420008EEE92E00E948B0C60E28EEE92E00E94C3
:10143000AE0BCE018F7099270F9721F48EEE92E0BC
:101440000E94B50BF801C1938F012196C11581E06F
:10145000D80709F78EEE92E00E94920A60E071E0F0
:1014600080E090E3E0ECFFE309956AEB72E08EEE3A
:1014700092E00E94B90BC0E0D0E0FE01F05D649103
:1014800040E150E08EEE92E00E948B0C60E28EEE26
:1014900092E00E94AE0BCE018F7099270F9721F436
:1014A0008EEE92E00E94B50B2196C115F1E0DF07A8
:1014B00021F766EC72E08EEE92E00E94B90B0E947A
:1014C000C60861EC72E08EEE92E0DF91CF911F9141
:1014D0000F910C94B90BCF93DF931F92CDB7DEB76A
:1014E0006983DC01ED91FC910280F381E02D41E004
:1014F00050E0BE016F5F7F4F09950F90DF91CF9154
:101500000895CF93DF93EC018C859D8597FF05C0EF
:1015100082E00E94D60D9D878C878C859D85DF910A
:10152000CF91089583E00C946A10FC018485958521
:1015300097FD06C082E00E947E0D90E0019608951E
:1015400082E00E947E0D90E00895FC0184859585DF
:1015500097FD05C02FEF3FEF35872487089582E080
:101560000C94D60DCF93DF93EC0180910B0288236E
:1015700031F083E00E94070E1816190634F081E05E
:1015800090E09B838A8380E090E0DF91CF91089583
:10159000FC0120812E5F208342E450E06CEA70E180
:1015A00080E80C94A20EFC0121818081813A59F4DB
:1015B000213209F04BC047E050E064E072E080E087
:1015C0000E94A20E5EC0813209F040C0233289F42D
:1015D000838190E0982F88273281832BA0E0B0E0B0
:1015E0008093000290930102A0930202B093030241
:1015F0000FC0203239F467E070E084E092E00E948E
:10160000D30E09C0223221F4828180930B0203C0E1
:101610002D7F2032B1F580913E03811103C0E0E0BF
:10162000F8E002C0EEEFFAE080910402909105022A
:10163000A0910602B0910702803B9440A105B1053C
:1016400011F580910B0280FF03C01DC080E008955A
:10165000EE3F2AE0F20731F0808191819093FF0AFA
:101660008093FE0A87E797E7918380832BE088E1E8
:1016700090E00FB6F894A895809360000FBE209379
:10168000600081E0089588E10FB6F89480936000CF
:10169000109260000FBEA895EE3F8AE0F80739F07F
:1016A0008091FE0A9091FF0A91838083EACF109285
:1016B000FF0A1092FE0AE5CF2FEF3FEFFC013587BE
:1016C00024870895CF93C0910B026AE070E080E018
:1016D00090E00E94931181E0C11101C080E0CF91A0
:1016E00008951092F1021092F00288EE93E0A0E0CB
:1016F000B0E08093F2029093F302A093F402B093CF
:10170000F50283ED92E09093EF028093EE028FEF6B
:101710009FEF9093FB028093FA020895DC01ED9114
:10172000FC910190F081E02D642F09946115710501
:1017300081F0DB010D900020E9F7AD014150510926
:10174000461B570BDC01ED91FC910280F381E02DEB
:10175000099480E090E008950C94960BDC01ED91E3
:10176000FC910190F081E02D09946FED72E00C94F2
:10177000960B0F931F93CF93DF93EC010E94960B70
:101780008C01CE010E94B50B800F911FDF91CF918C
:101790001F910F9108958F929F92AF92BF92DF9207
:1017A000EF92FF920F931F93CF93DF93CDB7DEB7E6
:1017B000A1970FB6F894DEBF0FBECDBF7C01F42F0A
:1017C000D52ECB0119A2223008F42AE08E010F5D3C
:1017D0001F4F822E912CA12CB12C6F2F7D2DA50196
:1017E00094010E94BF12F22FD32ECA010150110999
:1017F0006A3014F4E0E301C0E7E3E60FD801EC93AC
:10180000232B242B252B49F7B801C7010E94960BE7
:10181000A1960FB6F894DEBF0FBECDBFDF91CF917A
:101820001F910F91FF90EF90DF90BF90AF909F902E
:101830008F900895CF92DF92EF92FF920F931F93B4
:10184000CF93DF93EC016A017B012115310579F417
:10185000E881F9810190F081E02D642FDF91CF9133
:101860001F910F91FF90EF90DF90CF9009942A3055
:101870003105E9F477FF1AC06DE20E94AE0B8C01CE
:1018800044275527BA014C195D096E097F092AE0E2
:10189000CE010E94CB0B800F911FDF91CF911F9142
:1018A0000F91FF90EF90DF90CF9008952AE0B7015D
:1018B000A601CE01DF91CF911F910F91FF90EF9084
:1018C000DF90CF900C94CB0B9A01AB01662757FDAC
:1018D0006095762F0C941A0C0F931F93CF93DF9380
:1018E000EC019A01AB01662757FD6095762F0E94A7
:1018F0001A0C8C01CE010E94B50B800F911FDF9155
:10190000CF911F910F9108952115310511F40C9479
:101910008E0B0C94CB0B9A01462F50E060E070E0E8
:101920000C94840C0F931F93CF93DF93EC019A01D7
:10193000462F50E060E070E00E94840C8C01CE01E4
:101940000E94B50B800F911FDF91CF911F910F91D6
:1019500008959A01AB0160E070E00C94840C0F9341
:101960001F93CF93DF93EC019A01AB0160E070E02D
:101970000E94840C8C01CE010E94B50B800F911F38
:10198000DF91CF911F910F910895615030F0209118
:10199000F100FC0120830196F8CF289884E680931B
:1019A000480308954091430350914403209141031B
:1019B0003091420342175307B4F49091E8009570B8
:1019C000E1F39091E80092FD19C08093F1008091BD
:1019D00043039091440301968F739927892B19F43F
:1019E0008EEF8093E8008091430390914403019629
:1019F000909344038093430381E0089580E0089529
:101A0000CF92DF92EF92FF920F931F93CF93DF93CA
:101A10001F92CDB7DEB7082F162FF42E862F880F12
:101A20008E5F99830E94D20C83E00E94D20CE02E3C
:101A3000C02E9981D92E8C2D8E19811798F4F6011C
:101A4000F7FE02C0849101C080810E94D20C082F51
:101A500080E00E94D20C8023FFEFCF1ADF0A8111B1
:101A6000EACF01C081E00F90DF91CF911F910F91DC
:101A7000FF90EF90DF90CF9008958091D700816024
:101A80008093D70080EA8093D80089B5806189BDB2
:101A900089B5826089BD09B400FEFDCF61E070E0C8
:101AA00080E090E00E9493118091D8008F7C80614B
:101AB0008093D8008091E000807F8093E0000895BB
:101AC000CF93DF931F92CDB7DEB71982CE01019677
:101AD0000E94C80A0E94AA12BE016F5F7F4F0E9437
:101AE000231289810F90DF91CF9108952FB7FC01C8
:101AF0002083F89467706093E9000895CF93DF9393
:101B00001F92CDB7DEB7682FCE0101960E94760DE9
:101B10008091F20099819FBF0F90DF91CF9108953E
:101B2000FF920F931F93CF93DF9300D0CDB7DEB713
:101B3000F62E8A0190914703992311F057FF03C0B5
:101B40008FEF9FEF2BC0682FCE0101967A830E9402
:101B5000760D8091F20090E0A8017A8180179107BC
:101B60000CF4AC01EF2DF72FF40E84E6FE1639F0DD
:101B70002898809348039091F1009193F7CF4115F5
:101B8000510521F08091F200882321F089818FBFD7
:101B9000CA0104C08BE68093E800F8CF0F900F9045
:101BA000DF91CF911F910F91FF900895CF93DF9315
:101BB0001F92CDB7DEB741E050E0BE016F5F7F4FAF
:101BC0000E94900D019719F4898190E002C08FEF77
:101BD0009FEF0F90DF91CF910895CF93DF931F92E6
:101BE000CDB7DEB7682FCE0101960E94760D909199
:101BF000E800892F807295FF04C09091F2008FE376
:101C0000891B99819FBF0F90DF91CF9108956F92AB
:101C10007F928F929F92AF92BF92CF92DF92EF927C
:101C2000FF920F931F93CF93DF931F92CDB7DEB731
:101C3000782E7B01C42EB52E80914703882369F04E
:101C4000042F152F8AEFD82E872D8072982E9AE3B5
:101C5000A92E872D8074882E11C08FEF9FEF57C05B
:101C6000872D0E94ED0D682E81110CC0DA94A9F326
:101C700061E070E080E090E00E9493110115110591
:101C800079F73BC0282F30E0021713070CF4602EC1
:101C9000672DCE0101960E94760D8091E80085FFA8
:101CA00029C0262D30E0021B130B992039F06A94CD
:101CB0008FEF6816B1F01092F100F9CFF701862D81
:101CC00077FE07C0815058F094919093F1003196BF
:101CD000F9CF815020F091919093F100FACFE20E6C
:101CE000F31E8091E80085FF0FC00115110511F466
:101CF00081100AC089818FBFC1CF5D9884E680932F
:101D000049038C2D9B2D03C0A092E800F3CF0F90C8
:101D1000DF91CF911F910F91FF90EF90DF90CF90C7
:101D2000BF90AF909F908F907F906F90089510928A
:101D3000E90010924403109243039093420380936E
:101D400041030895CF92DF92FF920F931F93CF9399
:101D5000DF9300D0CDB7DEB7F82E8A016B010115F5
:101D60001105B1F0F601F7FE02C0849101C0808137
:101D700049835A830E94D20C01501109FFEFCF1AF8
:101D8000DF0A49815A818111EACF8FEF9FEF01C0AD
:101D9000CA010F900F90DF91CF911F910F91FF908B
:101DA000DF90CF900895BF92CF92DF92EF92FF9293
:101DB0000F931F93CF93DF936C018B01EB013BEFEC
:101DC000B32E2097C1F07E01C134D1051CF020E470
:101DD000E22EF12C8091E80082FFFCCFC8018C1B21
:101DE0009D0B6E2D8C0D9D1D0E94C50CB092E800C0
:101DF000CE19DF09E6CFC801DF91CF911F910F9176
:101E0000FF90EF90DF90CF90BF9008951F920F92B8
:101E10000FB60F921124DF92EF92FF920F931F9350
:101E20002F933F934F935F936F937F938F939F93E2
:101E3000AF93BF93EF93FF93CF93DF93CDB7DEB70D
:101E40006C97DEBFCDBF1092E9008091E80083FF60
:101E500023C168E0CE0145960E94C50C82EF8093B5
:101E6000E8003D8937FF05C08091E80080FFFCCF86
:101E700003C08EEF8093E800832F807609F0F0C0D6
:101E80002E894F89D88C21110CC0303829F48091CB
:101E900046038093F10002C01092F1001092F1000D
:101EA000F4C0842F90E09D29213049F43111EDC018
:101EB000019709F0EAC0809146038D7F0AC0233064
:101EC00059F43111E2C0019709F0DFC08091460357
:101ED000826080934603D9C0253041F48091E800A8
:101EE00080FFFCCF40684093E300CFC0263009F06C
:101EF0008DC0EB8CFC8C22E0D2122CC080E090E0F4
:101F00000E94970E0E94600D99E08E010F5F1F4F97
:101F1000F801292F11922A95E9F79983DA8291E045
:101F20009E8390EA98879AEF998720914303309196
:101F30004403275F3F4F3C832B838D83C7010E945F
:101F4000970E49E050E0B80180E00E94A20E0E9486
:101F5000600D9BC0C7010E94970E0E94AA12BE018D
:101F60006B5E7F4F0E944C12009719F00CF08DC0F1
:101F700090C081E0D8120EC08B8D9C8D089719F40B
:101F800081E0809340038091400381112FC060E085
:101F900071E131C0E3E0DE127CC08F89882349F112
:101FA000823029F440E860E18EE191E11CC081308B
:101FB00029F440E86BE082E191E115C0833009F03B
:101FC00068C00E94AA128E010F5F1F4FB8010E94C5
:101FD0006B12F80101900020E9F73197E01BF10B3B
:101FE00040E06E2FC8010E94000D4DC06EEE70E102
:101FF00002C06FE271E16115710509F44AC0FB018D
:10200000449150E080E80E94A20E3FC0273009F4BE
:1020100040C0283021F481E08093F10036C029309F
:10202000A1F53370B1F5EDE0F2E081E021E036E3B7
:102030009081992361F08093E9002093EB009191C6
:102040009093EC003093ED008F5F873089F78EE737
:102050008093EA001092EA008F898093470315C0AD
:102060008B8D9C8D0E94970E898D811105C0CE01AC
:1020700045960E94D30A07C00E94AA12BE016B5E59
:102080007F4F0E948A12882321F08EEF8093E80010
:1020900003C081E28093EB006C960FB6F894DEBF2C
:1020A0000FBECDBFDF91CF91FF91EF91BF91AF9167
:1020B0009F918F917F916F915F914F913F912F9160
:1020C0001F910F91FF90EF90DF900F900FBE0F9038
:1020D0001F9018958093E9008091F200882319F0F1
:1020E0008AE38093E80008951F920F920FB60F9233
:1020F00011242F933F934F935F936F937F938F930D
:102100009F93AF93BF93CF93EF93FF93C091E10061
:102110008091E100837F8093E100C3FF0FC01092A4
:10212000E90081E08093EB001092EC0082E3809361
:10213000ED001092470388E08093F000C2FF19C0C1
:1021400083E00E946A1080914903882339F08091CE
:102150004903815080934903882389F18091480382
:10216000882339F080914803815080934803882365
:1021700041F1C4FF10C08091E2008E7E81608093A7
:10218000E2008091E1008F7E8093E1008091450321
:102190008E7E806111C0C0FF16C08091E2008E7EED
:1021A00080618093E2008091E1008E7E8093E10067
:1021B000809145038E7E81608093450304C05D9AC3
:1021C000CDCF289AD6CFFF91EF91CF91BF91AF910C
:1021D0009F918F917F916F915F914F913F912F913F
:1021E0000F900FBE0F901F901895109247031092FA
:1021F0004603109245030E943D0D8091E1008E7EC2
:102200008093E1008DE08093E200559A209AEEEFF2
:10221000FFE7859194918B3F9C4D19F481E0809369
:102220003E03089508950E94CD110E9412118FE37C
:1022300093E00E94F5100E94AD09C0E0D0E00E943A
:10224000C5082097E1F30E940000F9CF1F920F927A
:102250000FB60F9211242F933F938F939F93AF93B9
:10226000BF9380914B0390914C03A0914D03B0918B
:102270004E0330914A0323E0230F2D3720F40196BB
:10228000A11DB11D05C026E8230F0296A11DB11D99
:1022900020934A0380934B0390934C03A0934D03E8
:1022A000B0934E0380914F0390915003A09151033E
:1022B000B09152030196A11DB11D80934F039093DD
:1022C0005003A0935103B0935203BF91AF919F91DC
:1022D0008F913F912F910F900FBE0F901F901895E7
:1022E0003FB7F89480914F0390915003A091510310
:1022F000B091520326B5A89B05C02F3F19F0019657
:10230000A11DB11D3FBF6627782F892F9A2F620F1D
:10231000711D811D911D42E0660F771F881F991F57
:102320004A95D1F708958F929F92AF92BF92CF9224
:10233000DF92EF92FF926B017C010E9470114B01C2
:102340005C01C114D104E104F104F1F00E94BE1259
:102350000E947011681979098A099B09683E7340C7
:102360008105910570F321E0C21AD108E108F10856
:1023700088EE880E83E0981EA11CB11CC114D10404
:10238000E104F10429F7DDCFFF90EF90DF90CF90CB
:10239000BF90AF909F908F900895789484B582609D
:1023A00084BD84B5816084BD85B5826085BD85B5F9
:1023B000816085BDEEE6F0E0808181608083E1E8A8
:1023C000F0E01082808182608083808181608083E0
:1023D000E0E8F0E0808181608083E1E9F0E08081E5
:1023E00082608083808181608083E0E9F0E0808189
:1023F00081608083E1ECF0E0808184608083808173
:1024000082608083808181608083E3ECF0E0808162
:1024100081608083E0ECF0E0808182608083E2EC88
:10242000F0E0808181608083EAE7F0E08081846071
:1024300080838081826080838081816080838081CD
:10244000806880830895EF92FF920F931F93CF933C
:10245000DF937B01FC01C281D38100E010E0209773
:1024600081F0E881F9810280F381E02DB701CE018E
:10247000099597FD08C0080F191F0884D985C02D3C
:10248000EECFC80102C08FEF9FEFDF91CF911F9178
:102490000F91FF90EF9008950F931F93CF93DF93C9
:1024A0008B01FC01C281D381209771F0E881F98111
:1024B0000480F581E02DB801CE010995009731F433
:1024C0000884D985C02DF0CF80E090E0DF91CF91D6
:1024D0001F910F9108950F931F93CF93DF938B015B
:1024E000FC01C281D381209771F0E881F9810680D7
:1024F000F781E02DB801CE010995080F111D088460
:10250000D985C02DF0CFF8011082DF91CF911F91B6
:102510000F9108950F931F93CF93DF938B01FC01CD
:10252000C281D381209771F0E881F9810190F08117
:10253000E02DB801CE010995811106C00884D98526
:10254000C02DF0CF80E001C081E0DF91CF911F91DD
:102550000F9108958091570381110DC082E08093FF
:10256000530384E080935403109256031092550352
:1025700081E08093570383E593E008950895A1E2F5
:102580001A2EAA1BBB1BFD010DC0AA1FBB1FEE1FED
:10259000FF1FA217B307E407F50720F0A21BB30B38
:1025A000E40BF50B661F771F881F991F1A9469F7B4
:1025B00060957095809590959B01AC01BD01CF0110
:1025C0000895EE0FFF1F0590F491E02D0994A8E106
:1025D000B0E042E050E00C94F4120E940213272F66
:1025E0000C940313DC01CB01FC01F999FECF06C06A
:1025F000F2BDE1BDF89A319600B40D9241505040C1
:10260000B8F70895262FF999FECF1FBA92BD81BD64
:1026100020BD0FB6F894FA9AF99A0FBE0196089564
:04262000F894FFCF5C
:10262400569F4488000000000000000000000000E5
:102634000000000000000000000000000000000096
:102644000000000000000000000000000000000086
:102654000000000000000000000000000000000076
:102664000000000000000000000000000000000066
:102674000000000000000000000000000000000056
:102684000000000000000000000000000000000046
:102694000000000000000000000000000000000036
:1026A4000000000000000000000000000000000026
:1026B4000000000000000000000000000000000016
:1026C4000000000000000000000000000000000006
:1026D40000000000000000000000000000000000F6
:1026E40000000000000000000000000000000000E6
:1026F40000000000000000000000000000000000D6
:1027040000000000000000000000000000000000C5
:1027140000000000000000000000000000000000B5
:10272400FFFFFFFF00E100000000000000C1808106
:1027340000000041626F7274696E672C2049206149
:102744006D206E6F7420676F696E6720746F206FE1
:1027540076657277726974652074686520666C6149
:102764007368696E672066756E6374696F6E20693D
:102774007473656C662E0066696E697368007665AD
:1027840072696669636174696F6E657272006578F7
:102794007065637465643A2000676F743A20007052
:1027A400616765206F66667365743A2000666C61C4
:1027B400736865643A2000466C617368696E6709E2
:1027C4000065727231006F6B310065727232006F96
:1027D4006B320062797465313A0062797465323A19
:1027E40000646F6E6520666C617368696E670000D3
:1027F4000000006B0AB20A950AA50A810A920A0D22
:0E2804000A006E616E00696E66006F766600F7
:00000001FF
